{
  "_format": "hh-sol-artifact-1",
  "contractName": "Marketplace",
  "sourceName": "contracts/Marketplace.sol",
  "abi": [
    {
      "inputs": [
        {
          "internalType": "uint256",
          "name": "_feePercent",
          "type": "uint256"
        }
      ],
      "stateMutability": "nonpayable",
      "type": "constructor"
    },
    {
      "anonymous": false,
      "inputs": [
        {
          "indexed": false,
          "internalType": "uint256",
          "name": "itemId",
          "type": "uint256"
        },
        {
          "indexed": true,
          "internalType": "address",
          "name": "nft",
          "type": "address"
        },
        {
          "indexed": false,
          "internalType": "uint256",
          "name": "tokenId",
          "type": "uint256"
        },
        {
          "indexed": false,
          "internalType": "uint256",
          "name": "price",
          "type": "uint256"
        },
        {
          "indexed": true,
          "internalType": "address",
          "name": "seller",
          "type": "address"
        },
        {
          "indexed": true,
          "internalType": "address",
          "name": "buyer",
          "type": "address"
        }
      ],
      "name": "Bought",
      "type": "event"
    },
    {
      "anonymous": false,
      "inputs": [
        {
          "indexed": false,
          "internalType": "uint256",
          "name": "itemId",
          "type": "uint256"
        },
        {
          "indexed": true,
          "internalType": "address",
          "name": "nft",
          "type": "address"
        },
        {
          "indexed": false,
          "internalType": "uint256",
          "name": "tokenId",
          "type": "uint256"
        },
        {
          "indexed": false,
          "internalType": "uint256",
          "name": "price",
          "type": "uint256"
        },
        {
          "indexed": true,
          "internalType": "address",
          "name": "seller",
          "type": "address"
        }
      ],
      "name": "Offered",
      "type": "event"
    },
    {
      "inputs": [
        {
          "internalType": "uint256",
          "name": "_itemId",
          "type": "uint256"
        }
      ],
      "name": "buyItem",
      "outputs": [],
      "stateMutability": "payable",
      "type": "function"
    },
    {
      "inputs": [],
      "name": "feeAccount",
      "outputs": [
        {
          "internalType": "address payable",
          "name": "",
          "type": "address"
        }
      ],
      "stateMutability": "view",
      "type": "function"
    },
    {
      "inputs": [],
      "name": "feePercent",
      "outputs": [
        {
          "internalType": "uint256",
          "name": "",
          "type": "uint256"
        }
      ],
      "stateMutability": "view",
      "type": "function"
    },
    {
      "inputs": [
        {
          "internalType": "uint256",
          "name": "_itemId",
          "type": "uint256"
        }
      ],
      "name": "getFinalPrice",
      "outputs": [
        {
          "internalType": "uint256",
          "name": "",
          "type": "uint256"
        }
      ],
      "stateMutability": "view",
      "type": "function"
    },
    {
      "inputs": [],
      "name": "itemCount",
      "outputs": [
        {
          "internalType": "uint256",
          "name": "",
          "type": "uint256"
        }
      ],
      "stateMutability": "view",
      "type": "function"
    },
    {
      "inputs": [
        {
          "internalType": "uint256",
          "name": "",
          "type": "uint256"
        }
      ],
      "name": "items",
      "outputs": [
        {
          "internalType": "uint256",
          "name": "itemId",
          "type": "uint256"
        },
        {
          "internalType": "contract IERC721",
          "name": "nft",
          "type": "address"
        },
        {
          "internalType": "uint256",
          "name": "tokenId",
          "type": "uint256"
        },
        {
          "internalType": "uint256",
          "name": "price",
          "type": "uint256"
        },
        {
          "internalType": "address payable",
          "name": "seller",
          "type": "address"
        },
        {
          "internalType": "bool",
          "name": "isSold",
          "type": "bool"
        }
      ],
      "stateMutability": "view",
      "type": "function"
    },
    {
      "inputs": [
        {
          "internalType": "contract IERC721",
          "name": "_nft",
          "type": "address"
        },
        {
          "internalType": "uint256",
          "name": "_tokenId",
          "type": "uint256"
        },
        {
          "internalType": "uint256",
          "name": "_price",
          "type": "uint256"
        }
      ],
      "name": "makeItem",
      "outputs": [],
      "stateMutability": "nonpayable",
      "type": "function"
    }
  ],
  "bytecode": "0x60a06040523480156200001157600080fd5b50604051620012ed380380620012ed8339818101604052810190620000379190620000cf565b600160008190555033600160006101000a81548173ffffffffffffffffffffffffffffffffffffffff021916908373ffffffffffffffffffffffffffffffffffffffff16021790555080608081815250505062000101565b600080fd5b6000819050919050565b620000a98162000094565b8114620000b557600080fd5b50565b600081519050620000c9816200009e565b92915050565b600060208284031215620000e857620000e76200008f565b5b6000620000f884828501620000b8565b91505092915050565b6080516111c962000124600039600081816101c0015261024b01526111c96000f3fe6080604052600436106100705760003560e01c80637fd6f15c1161004e5780637fd6f15c14610108578063bfb231d214610133578063e7fb74c714610175578063fa00afc71461019157610070565b80634b5549541461007557806365e17c9d146100b25780636bfb0d01146100dd575b600080fd5b34801561008157600080fd5b5061009c60048036038101906100979190610a90565b6101ba565b6040516100a99190610acc565b60405180910390f35b3480156100be57600080fd5b506100c761021d565b6040516100d49190610b28565b60405180910390f35b3480156100e957600080fd5b506100f2610243565b6040516100ff9190610acc565b60405180910390f35b34801561011457600080fd5b5061011d610249565b60405161012a9190610acc565b60405180910390f35b34801561013f57600080fd5b5061015a60048036038101906101559190610a90565b61026d565b60405161016c96959493929190610bbd565b60405180910390f35b61018f600480360381019061018a9190610a90565b6102f6565b005b34801561019d57600080fd5b506101b860048036038101906101b39190610c6e565b610783565b005b600060647f000000000000000000000000000000000000000000000000000000000000000060646101eb9190610cf0565b600360008581526020019081526020016000206003015461020c9190610d46565b6102169190610dcf565b9050919050565b600160009054906101000a900473ffffffffffffffffffffffffffffffffffffffff1681565b60025481565b7f000000000000000000000000000000000000000000000000000000000000000081565b60036020528060005260406000206000915090508060000154908060010160009054906101000a900473ffffffffffffffffffffffffffffffffffffffff16908060020154908060030154908060040160009054906101000a900473ffffffffffffffffffffffffffffffffffffffff16908060040160149054906101000a900460ff16905086565b6002600054141561033c576040517f08c379a000000000000000000000000000000000000000000000000000000000815260040161033390610e5d565b60405180910390fd5b6002600081905550600015156003600083815260200190815260200160002060040160149054906101000a900460ff161515146103ae576040517f08c379a00000000000000000000000000000000000000000000000000000000081526004016103a590610ec9565b60405180910390fd5b6000811180156103c057506002548111155b6103ff576040517f08c379a00000000000000000000000000000000000000000000000000000000081526004016103f690610f35565b60405180910390fd5b3373ffffffffffffffffffffffffffffffffffffffff166003600083815260200190815260200160002060040160009054906101000a900473ffffffffffffffffffffffffffffffffffffffff1673ffffffffffffffffffffffffffffffffffffffff1614156104a4576040517f08c379a000000000000000000000000000000000000000000000000000000000815260040161049b90610fa1565b60405180910390fd5b60006104af826101ba565b905060006003600084815260200190815260200160002090503482111561050b576040517f08c379a00000000000000000000000000000000000000000000000000000000081526004016105029061100d565b60405180910390fd5b8060040160009054906101000a900473ffffffffffffffffffffffffffffffffffffffff1673ffffffffffffffffffffffffffffffffffffffff166108fc82600301549081150290604051600060405180830381858888f19350505050158015610579573d6000803e3d6000fd5b50600160009054906101000a900473ffffffffffffffffffffffffffffffffffffffff1673ffffffffffffffffffffffffffffffffffffffff166108fc8260030154846105c6919061102d565b9081150290604051600060405180830381858888f193505050501580156105f1573d6000803e3d6000fd5b508060010160009054906101000a900473ffffffffffffffffffffffffffffffffffffffff1673ffffffffffffffffffffffffffffffffffffffff166323b872dd303384600201546040518463ffffffff1660e01b815260040161065793929190611070565b600060405180830381600087803b15801561067157600080fd5b505af1158015610685573d6000803e3d6000fd5b5050505060018160040160146101000a81548160ff0219169083151502179055503373ffffffffffffffffffffffffffffffffffffffff168160040160009054906101000a900473ffffffffffffffffffffffffffffffffffffffff1673ffffffffffffffffffffffffffffffffffffffff168260010160009054906101000a900473ffffffffffffffffffffffffffffffffffffffff1673ffffffffffffffffffffffffffffffffffffffff167f8b4c9c8a607d67b321582dd8461041b1dc2ceeca70c8b7f37f8e02095cf2e76d868560020154866003015460405161076e939291906110a7565b60405180910390a45050600160008190555050565b600260005414156107c9576040517f08c379a00000000000000000000000000000000000000000000000000000000081526004016107c090610e5d565b60405180910390fd5b600260008190555060008111610814576040517f08c379a000000000000000000000000000000000000000000000000000000000815260040161080b9061112a565b60405180910390fd5b600260008154809291906108279061114a565b91905055508273ffffffffffffffffffffffffffffffffffffffff166323b872dd3330856040518463ffffffff1660e01b815260040161086993929190611070565b600060405180830381600087803b15801561088357600080fd5b505af1158015610897573d6000803e3d6000fd5b505050506040518060c0016040528060025481526020018473ffffffffffffffffffffffffffffffffffffffff1681526020018381526020018281526020013373ffffffffffffffffffffffffffffffffffffffff168152602001600015158152506003600060025481526020019081526020016000206000820151816000015560208201518160010160006101000a81548173ffffffffffffffffffffffffffffffffffffffff021916908373ffffffffffffffffffffffffffffffffffffffff160217905550604082015181600201556060820151816003015560808201518160040160006101000a81548173ffffffffffffffffffffffffffffffffffffffff021916908373ffffffffffffffffffffffffffffffffffffffff16021790555060a08201518160040160146101000a81548160ff0219169083151502179055509050503373ffffffffffffffffffffffffffffffffffffffff168373ffffffffffffffffffffffffffffffffffffffff167f655a0cf9c8db81512be9a76dc1c5ae5380b8816ce6ad659cd61b715e2999d59a6002548585604051610a40939291906110a7565b60405180910390a36001600081905550505050565b600080fd5b6000819050919050565b610a6d81610a5a565b8114610a7857600080fd5b50565b600081359050610a8a81610a64565b92915050565b600060208284031215610aa657610aa5610a55565b5b6000610ab484828501610a7b565b91505092915050565b610ac681610a5a565b82525050565b6000602082019050610ae16000830184610abd565b92915050565b600073ffffffffffffffffffffffffffffffffffffffff82169050919050565b6000610b1282610ae7565b9050919050565b610b2281610b07565b82525050565b6000602082019050610b3d6000830184610b19565b92915050565b6000819050919050565b6000610b68610b63610b5e84610ae7565b610b43565b610ae7565b9050919050565b6000610b7a82610b4d565b9050919050565b6000610b8c82610b6f565b9050919050565b610b9c81610b81565b82525050565b60008115159050919050565b610bb781610ba2565b82525050565b600060c082019050610bd26000830189610abd565b610bdf6020830188610b93565b610bec6040830187610abd565b610bf96060830186610abd565b610c066080830185610b19565b610c1360a0830184610bae565b979650505050505050565b6000610c2982610ae7565b9050919050565b6000610c3b82610c1e565b9050919050565b610c4b81610c30565b8114610c5657600080fd5b50565b600081359050610c6881610c42565b92915050565b600080600060608486031215610c8757610c86610a55565b5b6000610c9586828701610c59565b9350506020610ca686828701610a7b565b9250506040610cb786828701610a7b565b9150509250925092565b7f4e487b7100000000000000000000000000000000000000000000000000000000600052601160045260246000fd5b6000610cfb82610a5a565b9150610d0683610a5a565b9250827fffffffffffffffffffffffffffffffffffffffffffffffffffffffffffffffff03821115610d3b57610d3a610cc1565b5b828201905092915050565b6000610d5182610a5a565b9150610d5c83610a5a565b9250817fffffffffffffffffffffffffffffffffffffffffffffffffffffffffffffffff0483118215151615610d9557610d94610cc1565b5b828202905092915050565b7f4e487b7100000000000000000000000000000000000000000000000000000000600052601260045260246000fd5b6000610dda82610a5a565b9150610de583610a5a565b925082610df557610df4610da0565b5b828204905092915050565b600082825260208201905092915050565b7f5265656e7472616e637947756172643a207265656e7472616e742063616c6c00600082015250565b6000610e47601f83610e00565b9150610e5282610e11565b602082019050919050565b60006020820190508181036000830152610e7681610e3a565b9050919050565b7f4974656d20697320616c726561647920736f6c64000000000000000000000000600082015250565b6000610eb3601483610e00565b9150610ebe82610e7d565b602082019050919050565b60006020820190508181036000830152610ee281610ea6565b9050919050565b7f4974656d20646f6573206e6f7420657869737400000000000000000000000000600082015250565b6000610f1f601383610e00565b9150610f2a82610ee9565b602082019050919050565b60006020820190508181036000830152610f4e81610f12565b9050919050565b7f596f752063616e6e6f742062757920796f7572206f776e206974656d00000000600082015250565b6000610f8b601c83610e00565b9150610f9682610f55565b602082019050919050565b60006020820190508181036000830152610fba81610f7e565b9050919050565b7f4e6f7420656e6f756768206d6f6e657920746f20627579206974656d00000000600082015250565b6000610ff7601c83610e00565b915061100282610fc1565b602082019050919050565b6000602082019050818103600083015261102681610fea565b9050919050565b600061103882610a5a565b915061104383610a5a565b92508282101561105657611055610cc1565b5b828203905092915050565b61106a81610c1e565b82525050565b60006060820190506110856000830186611061565b6110926020830185611061565b61109f6040830184610abd565b949350505050565b60006060820190506110bc6000830186610abd565b6110c96020830185610abd565b6110d66040830184610abd565b949350505050565b7f5072696365206d7573742062652067726561746572207468616e203000000000600082015250565b6000611114601c83610e00565b915061111f826110de565b602082019050919050565b6000602082019050818103600083015261114381611107565b9050919050565b600061115582610a5a565b91507fffffffffffffffffffffffffffffffffffffffffffffffffffffffffffffffff82141561118857611187610cc1565b5b60018201905091905056fea26469706673582212205e9544845ae5c72f4d659d514c7613faedff37c954074035f160fdcd2bcfad8064736f6c63430008090033",
  "linkReferences": {},
  "deployedLinkReferences": {}
}