{
  "_format": "hh-sol-artifact-1",
  "contractName": "Marketplace",
  "sourceName": "contracts/Marketplace.sol",
  "abi": [
    {
      "inputs": [
        {
          "internalType": "uint256",
          "name": "_feePercent",
          "type": "uint256"
        }
      ],
      "stateMutability": "nonpayable",
      "type": "constructor"
    },
    {
      "anonymous": false,
      "inputs": [
        {
          "indexed": false,
          "internalType": "uint256",
          "name": "itemId",
          "type": "uint256"
        },
        {
          "indexed": true,
          "internalType": "address",
          "name": "nft",
          "type": "address"
        },
        {
          "indexed": false,
          "internalType": "uint256",
          "name": "tokenId",
          "type": "uint256"
        },
        {
          "indexed": false,
          "internalType": "uint256",
          "name": "price",
          "type": "uint256"
        },
        {
          "indexed": true,
          "internalType": "address",
          "name": "seller",
          "type": "address"
        },
        {
          "indexed": true,
          "internalType": "address",
          "name": "buyer",
          "type": "address"
        }
      ],
      "name": "Bought",
      "type": "event"
    },
    {
      "anonymous": false,
      "inputs": [
        {
          "indexed": false,
          "internalType": "uint256",
          "name": "itemId",
          "type": "uint256"
        },
        {
          "indexed": true,
          "internalType": "address",
          "name": "nft",
          "type": "address"
        },
        {
          "indexed": false,
          "internalType": "uint256",
          "name": "tokenId",
          "type": "uint256"
        },
        {
          "indexed": false,
          "internalType": "uint256",
          "name": "price",
          "type": "uint256"
        },
        {
          "indexed": true,
          "internalType": "address",
          "name": "seller",
          "type": "address"
        }
      ],
      "name": "Offered",
      "type": "event"
    },
    {
      "inputs": [
        {
          "internalType": "uint256",
          "name": "_itemId",
          "type": "uint256"
        }
      ],
      "name": "buyItem",
      "outputs": [],
      "stateMutability": "payable",
      "type": "function"
    },
    {
      "inputs": [],
      "name": "feeAccount",
      "outputs": [
        {
          "internalType": "address payable",
          "name": "",
          "type": "address"
        }
      ],
      "stateMutability": "view",
      "type": "function"
    },
    {
      "inputs": [],
      "name": "feePercent",
      "outputs": [
        {
          "internalType": "uint256",
          "name": "",
          "type": "uint256"
        }
      ],
      "stateMutability": "view",
      "type": "function"
    },
    {
      "inputs": [
        {
          "internalType": "uint256",
          "name": "_itemId",
          "type": "uint256"
        }
      ],
      "name": "getFinalPrice",
      "outputs": [
        {
          "internalType": "uint256",
          "name": "",
          "type": "uint256"
        }
      ],
      "stateMutability": "view",
      "type": "function"
    },
    {
      "inputs": [],
      "name": "itemCount",
      "outputs": [
        {
          "internalType": "uint256",
          "name": "",
          "type": "uint256"
        }
      ],
      "stateMutability": "view",
      "type": "function"
    },
    {
      "inputs": [
        {
          "internalType": "uint256",
          "name": "",
          "type": "uint256"
        }
      ],
      "name": "items",
      "outputs": [
        {
          "internalType": "uint256",
          "name": "itemId",
          "type": "uint256"
        },
        {
          "internalType": "contract IERC721",
          "name": "nft",
          "type": "address"
        },
        {
          "internalType": "uint256",
          "name": "tokenId",
          "type": "uint256"
        },
        {
          "internalType": "uint256",
          "name": "price",
          "type": "uint256"
        },
        {
          "internalType": "address payable",
          "name": "seller",
          "type": "address"
        },
        {
          "internalType": "bool",
          "name": "isSold",
          "type": "bool"
        }
      ],
      "stateMutability": "view",
      "type": "function"
    },
    {
      "inputs": [
        {
          "internalType": "contract IERC721",
          "name": "_nft",
          "type": "address"
        },
        {
          "internalType": "uint256",
          "name": "_tokenId",
          "type": "uint256"
        },
        {
          "internalType": "uint256",
          "name": "_price",
          "type": "uint256"
        }
      ],
      "name": "makeItem",
      "outputs": [],
      "stateMutability": "nonpayable",
      "type": "function"
    }
  ],
  "bytecode": "0x60a060405234801561001057600080fd5b50604051620011ce380380620011ce833981810160405281019061003491906100c6565b600160008190555033600160006101000a81548173ffffffffffffffffffffffffffffffffffffffff021916908373ffffffffffffffffffffffffffffffffffffffff1602179055508060808181525050506100f3565b600080fd5b6000819050919050565b6100a381610090565b81146100ae57600080fd5b50565b6000815190506100c08161009a565b92915050565b6000602082840312156100dc576100db61008b565b5b60006100ea848285016100b1565b91505092915050565b6080516110b862000116600039600081816101c0015261024b01526110b86000f3fe6080604052600436106100705760003560e01c80637fd6f15c1161004e5780637fd6f15c14610108578063bfb231d214610133578063e7fb74c714610175578063fa00afc71461019157610070565b80634b5549541461007557806365e17c9d146100b25780636bfb0d01146100dd575b600080fd5b34801561008157600080fd5b5061009c600480360381019061009791906109eb565b6101ba565b6040516100a99190610a27565b60405180910390f35b3480156100be57600080fd5b506100c761021d565b6040516100d49190610a83565b60405180910390f35b3480156100e957600080fd5b506100f2610243565b6040516100ff9190610a27565b60405180910390f35b34801561011457600080fd5b5061011d610249565b60405161012a9190610a27565b60405180910390f35b34801561013f57600080fd5b5061015a600480360381019061015591906109eb565b61026d565b60405161016c96959493929190610b18565b60405180910390f35b61018f600480360381019061018a91906109eb565b6102f6565b005b34801561019d57600080fd5b506101b860048036038101906101b39190610bc9565b6106de565b005b600060647f000000000000000000000000000000000000000000000000000000000000000060646101eb9190610c4b565b600360008581526020019081526020016000206003015461020c9190610ca1565b6102169190610d2a565b9050919050565b600160009054906101000a900473ffffffffffffffffffffffffffffffffffffffff1681565b60025481565b7f000000000000000000000000000000000000000000000000000000000000000081565b60036020528060005260406000206000915090508060000154908060010160009054906101000a900473ffffffffffffffffffffffffffffffffffffffff16908060020154908060030154908060040160009054906101000a900473ffffffffffffffffffffffffffffffffffffffff16908060040160149054906101000a900460ff16905086565b6002600054141561033c576040517f08c379a000000000000000000000000000000000000000000000000000000000815260040161033390610db8565b60405180910390fd5b6002600081905550600015156003600083815260200190815260200160002060040160149054906101000a900460ff161515146103ae576040517f08c379a00000000000000000000000000000000000000000000000000000000081526004016103a590610e24565b60405180910390fd5b6000811180156103c057506002548111155b6103ff576040517f08c379a00000000000000000000000000000000000000000000000000000000081526004016103f690610e90565b60405180910390fd5b600061040a826101ba565b9050600060036000848152602001908152602001600020905034821115610466576040517f08c379a000000000000000000000000000000000000000000000000000000000815260040161045d90610efc565b60405180910390fd5b8060040160009054906101000a900473ffffffffffffffffffffffffffffffffffffffff1673ffffffffffffffffffffffffffffffffffffffff166108fc82600301549081150290604051600060405180830381858888f193505050501580156104d4573d6000803e3d6000fd5b50600160009054906101000a900473ffffffffffffffffffffffffffffffffffffffff1673ffffffffffffffffffffffffffffffffffffffff166108fc8260030154846105219190610f1c565b9081150290604051600060405180830381858888f1935050505015801561054c573d6000803e3d6000fd5b508060010160009054906101000a900473ffffffffffffffffffffffffffffffffffffffff1673ffffffffffffffffffffffffffffffffffffffff166323b872dd303384600201546040518463ffffffff1660e01b81526004016105b293929190610f5f565b600060405180830381600087803b1580156105cc57600080fd5b505af11580156105e0573d6000803e3d6000fd5b5050505060018160040160146101000a81548160ff0219169083151502179055503373ffffffffffffffffffffffffffffffffffffffff168160040160009054906101000a900473ffffffffffffffffffffffffffffffffffffffff1673ffffffffffffffffffffffffffffffffffffffff168260010160009054906101000a900473ffffffffffffffffffffffffffffffffffffffff1673ffffffffffffffffffffffffffffffffffffffff167f8b4c9c8a607d67b321582dd8461041b1dc2ceeca70c8b7f37f8e02095cf2e76d86856002015486600301546040516106c993929190610f96565b60405180910390a45050600160008190555050565b60026000541415610724576040517f08c379a000000000000000000000000000000000000000000000000000000000815260040161071b90610db8565b60405180910390fd5b60026000819055506000811161076f576040517f08c379a000000000000000000000000000000000000000000000000000000000815260040161076690611019565b60405180910390fd5b6002600081548092919061078290611039565b91905055508273ffffffffffffffffffffffffffffffffffffffff166323b872dd3330856040518463ffffffff1660e01b81526004016107c493929190610f5f565b600060405180830381600087803b1580156107de57600080fd5b505af11580156107f2573d6000803e3d6000fd5b505050506040518060c0016040528060025481526020018473ffffffffffffffffffffffffffffffffffffffff1681526020018381526020018281526020013373ffffffffffffffffffffffffffffffffffffffff168152602001600015158152506003600060025481526020019081526020016000206000820151816000015560208201518160010160006101000a81548173ffffffffffffffffffffffffffffffffffffffff021916908373ffffffffffffffffffffffffffffffffffffffff160217905550604082015181600201556060820151816003015560808201518160040160006101000a81548173ffffffffffffffffffffffffffffffffffffffff021916908373ffffffffffffffffffffffffffffffffffffffff16021790555060a08201518160040160146101000a81548160ff0219169083151502179055509050503373ffffffffffffffffffffffffffffffffffffffff168373ffffffffffffffffffffffffffffffffffffffff167f655a0cf9c8db81512be9a76dc1c5ae5380b8816ce6ad659cd61b715e2999d59a600254858560405161099b93929190610f96565b60405180910390a36001600081905550505050565b600080fd5b6000819050919050565b6109c8816109b5565b81146109d357600080fd5b50565b6000813590506109e5816109bf565b92915050565b600060208284031215610a0157610a006109b0565b5b6000610a0f848285016109d6565b91505092915050565b610a21816109b5565b82525050565b6000602082019050610a3c6000830184610a18565b92915050565b600073ffffffffffffffffffffffffffffffffffffffff82169050919050565b6000610a6d82610a42565b9050919050565b610a7d81610a62565b82525050565b6000602082019050610a986000830184610a74565b92915050565b6000819050919050565b6000610ac3610abe610ab984610a42565b610a9e565b610a42565b9050919050565b6000610ad582610aa8565b9050919050565b6000610ae782610aca565b9050919050565b610af781610adc565b82525050565b60008115159050919050565b610b1281610afd565b82525050565b600060c082019050610b2d6000830189610a18565b610b3a6020830188610aee565b610b476040830187610a18565b610b546060830186610a18565b610b616080830185610a74565b610b6e60a0830184610b09565b979650505050505050565b6000610b8482610a42565b9050919050565b6000610b9682610b79565b9050919050565b610ba681610b8b565b8114610bb157600080fd5b50565b600081359050610bc381610b9d565b92915050565b600080600060608486031215610be257610be16109b0565b5b6000610bf086828701610bb4565b9350506020610c01868287016109d6565b9250506040610c12868287016109d6565b9150509250925092565b7f4e487b7100000000000000000000000000000000000000000000000000000000600052601160045260246000fd5b6000610c56826109b5565b9150610c61836109b5565b9250827fffffffffffffffffffffffffffffffffffffffffffffffffffffffffffffffff03821115610c9657610c95610c1c565b5b828201905092915050565b6000610cac826109b5565b9150610cb7836109b5565b9250817fffffffffffffffffffffffffffffffffffffffffffffffffffffffffffffffff0483118215151615610cf057610cef610c1c565b5b828202905092915050565b7f4e487b7100000000000000000000000000000000000000000000000000000000600052601260045260246000fd5b6000610d35826109b5565b9150610d40836109b5565b925082610d5057610d4f610cfb565b5b828204905092915050565b600082825260208201905092915050565b7f5265656e7472616e637947756172643a207265656e7472616e742063616c6c00600082015250565b6000610da2601f83610d5b565b9150610dad82610d6c565b602082019050919050565b60006020820190508181036000830152610dd181610d95565b9050919050565b7f4974656d20697320616c726561647920736f6c64000000000000000000000000600082015250565b6000610e0e601483610d5b565b9150610e1982610dd8565b602082019050919050565b60006020820190508181036000830152610e3d81610e01565b9050919050565b7f4974656d20646f6573206e6f7420657869737400000000000000000000000000600082015250565b6000610e7a601383610d5b565b9150610e8582610e44565b602082019050919050565b60006020820190508181036000830152610ea981610e6d565b9050919050565b7f4e6f7420656e6f756768206d6f6e657920746f20627579206974656d00000000600082015250565b6000610ee6601c83610d5b565b9150610ef182610eb0565b602082019050919050565b60006020820190508181036000830152610f1581610ed9565b9050919050565b6000610f27826109b5565b9150610f32836109b5565b925082821015610f4557610f44610c1c565b5b828203905092915050565b610f5981610b79565b82525050565b6000606082019050610f746000830186610f50565b610f816020830185610f50565b610f8e6040830184610a18565b949350505050565b6000606082019050610fab6000830186610a18565b610fb86020830185610a18565b610fc56040830184610a18565b949350505050565b7f5072696365206d7573742062652067726561746572207468616e203000000000600082015250565b6000611003601c83610d5b565b915061100e82610fcd565b602082019050919050565b6000602082019050818103600083015261103281610ff6565b9050919050565b6000611044826109b5565b91507fffffffffffffffffffffffffffffffffffffffffffffffffffffffffffffffff82141561107757611076610c1c565b5b60018201905091905056fea26469706673582212202e12ce07bb0f16497691096403bfb263b611c8b8d56eae0befba3e879a87a1ec64736f6c63430008090033",
  "linkReferences": {},
  "deployedLinkReferences": {}
}