{
  "_format": "hh-sol-artifact-1",
  "contractName": "Marketplace",
  "sourceName": "contracts/Marketplace.sol",
  "abi": [
    {
      "inputs": [
        {
          "internalType": "uint256",
          "name": "_feePercent",
          "type": "uint256"
        }
      ],
      "stateMutability": "nonpayable",
      "type": "constructor"
    },
    {
      "anonymous": false,
      "inputs": [
        {
          "indexed": false,
          "internalType": "uint256",
          "name": "itemId",
          "type": "uint256"
        },
        {
          "indexed": true,
          "internalType": "address",
          "name": "nft",
          "type": "address"
        },
        {
          "indexed": false,
          "internalType": "uint256",
          "name": "tokenId",
          "type": "uint256"
        },
        {
          "indexed": false,
          "internalType": "uint256",
          "name": "price",
          "type": "uint256"
        },
        {
          "indexed": true,
          "internalType": "address",
          "name": "seller",
          "type": "address"
        },
        {
          "indexed": true,
          "internalType": "address",
          "name": "buyer",
          "type": "address"
        }
      ],
      "name": "Bought",
      "type": "event"
    },
    {
      "anonymous": false,
      "inputs": [
        {
          "indexed": false,
          "internalType": "uint256",
          "name": "itemId",
          "type": "uint256"
        },
        {
          "indexed": true,
          "internalType": "address",
          "name": "nft",
          "type": "address"
        },
        {
          "indexed": false,
          "internalType": "uint256",
          "name": "tokenId",
          "type": "uint256"
        },
        {
          "indexed": false,
          "internalType": "uint256",
          "name": "price",
          "type": "uint256"
        },
        {
          "indexed": true,
          "internalType": "address",
          "name": "seller",
          "type": "address"
        }
      ],
      "name": "Offered",
      "type": "event"
    },
    {
      "inputs": [
        {
          "internalType": "uint256",
          "name": "_itemId",
          "type": "uint256"
        }
      ],
      "name": "buyItem",
      "outputs": [],
      "stateMutability": "payable",
      "type": "function"
    },
    {
      "inputs": [],
      "name": "feeAccount",
      "outputs": [
        {
          "internalType": "address payable",
          "name": "",
          "type": "address"
        }
      ],
      "stateMutability": "view",
      "type": "function"
    },
    {
      "inputs": [],
      "name": "feePercent",
      "outputs": [
        {
          "internalType": "uint256",
          "name": "",
          "type": "uint256"
        }
      ],
      "stateMutability": "view",
      "type": "function"
    },
    {
      "inputs": [
        {
          "internalType": "uint256",
          "name": "_itemId",
          "type": "uint256"
        }
      ],
      "name": "getFinalPrice",
      "outputs": [
        {
          "internalType": "uint256",
          "name": "",
          "type": "uint256"
        }
      ],
      "stateMutability": "view",
      "type": "function"
    },
    {
      "inputs": [],
      "name": "itemCount",
      "outputs": [
        {
          "internalType": "uint256",
          "name": "",
          "type": "uint256"
        }
      ],
      "stateMutability": "view",
      "type": "function"
    },
    {
      "inputs": [
        {
          "internalType": "uint256",
          "name": "",
          "type": "uint256"
        }
      ],
      "name": "items",
      "outputs": [
        {
          "internalType": "uint256",
          "name": "itemId",
          "type": "uint256"
        },
        {
          "internalType": "contract IERC721",
          "name": "nft",
          "type": "address"
        },
        {
          "internalType": "uint256",
          "name": "tokenId",
          "type": "uint256"
        },
        {
          "internalType": "uint256",
          "name": "price",
          "type": "uint256"
        },
        {
          "internalType": "uint256",
          "name": "listingPrice",
          "type": "uint256"
        },
        {
          "internalType": "address payable",
          "name": "seller",
          "type": "address"
        },
        {
          "internalType": "bool",
          "name": "isSold",
          "type": "bool"
        }
      ],
      "stateMutability": "view",
      "type": "function"
    },
    {
      "inputs": [
        {
          "internalType": "uint256",
          "name": "_itemId",
          "type": "uint256"
        },
        {
          "internalType": "uint256",
          "name": "_price",
          "type": "uint256"
        }
      ],
      "name": "listItem",
      "outputs": [],
      "stateMutability": "nonpayable",
      "type": "function"
    },
    {
      "inputs": [
        {
          "internalType": "contract IERC721",
          "name": "_nft",
          "type": "address"
        },
        {
          "internalType": "uint256",
          "name": "_tokenId",
          "type": "uint256"
        },
        {
          "internalType": "uint256",
          "name": "_price",
          "type": "uint256"
        }
      ],
      "name": "makeItem",
      "outputs": [],
      "stateMutability": "nonpayable",
      "type": "function"
    }
  ],
  "bytecode": "0x60a06040523480156200001157600080fd5b50604051620017e5380380620017e58339818101604052810190620000379190620000cf565b600160008190555033600160006101000a81548173ffffffffffffffffffffffffffffffffffffffff021916908373ffffffffffffffffffffffffffffffffffffffff16021790555080608081815250505062000101565b600080fd5b6000819050919050565b620000a98162000094565b8114620000b557600080fd5b50565b600081519050620000c9816200009e565b92915050565b600060208284031215620000e857620000e76200008f565b5b6000620000f884828501620000b8565b91505092915050565b6080516116c162000124600039600081816101f5015261028001526116c16000f3fe60806040526004361061007b5760003560e01c8063883efa671161004e578063883efa671461013e578063bfb231d214610167578063e7fb74c7146101aa578063fa00afc7146101c65761007b565b80634b5549541461008057806365e17c9d146100bd5780636bfb0d01146100e85780637fd6f15c14610113575b600080fd5b34801561008c57600080fd5b506100a760048036038101906100a29190610e4f565b6101ef565b6040516100b49190610e8b565b60405180910390f35b3480156100c957600080fd5b506100d2610252565b6040516100df9190610ee7565b60405180910390f35b3480156100f457600080fd5b506100fd610278565b60405161010a9190610e8b565b60405180910390f35b34801561011f57600080fd5b5061012861027e565b6040516101359190610e8b565b60405180910390f35b34801561014a57600080fd5b5061016560048036038101906101609190610f02565b6102a2565b005b34801561017357600080fd5b5061018e60048036038101906101899190610e4f565b610603565b6040516101a19796959493929190610fbc565b60405180910390f35b6101c460048036038101906101bf9190610e4f565b610692565b005b3480156101d257600080fd5b506101ed60048036038101906101e8919061107b565b610b2c565b005b600060647f0000000000000000000000000000000000000000000000000000000000000000606461022091906110fd565b60036000858152602001908152602001600020600401546102419190611153565b61024b91906111dc565b9050919050565b600160009054906101000a900473ffffffffffffffffffffffffffffffffffffffff1681565b60025481565b7f000000000000000000000000000000000000000000000000000000000000000081565b600260005414156102e8576040517f08c379a00000000000000000000000000000000000000000000000000000000081526004016102df9061126a565b60405180910390fd5b60026000819055503373ffffffffffffffffffffffffffffffffffffffff166003600084815260200190815260200160002060010160009054906101000a900473ffffffffffffffffffffffffffffffffffffffff1673ffffffffffffffffffffffffffffffffffffffff16636352211e60036000868152602001908152602001600020600201546040518263ffffffff1660e01b815260040161038c9190610e8b565b60206040518083038186803b1580156103a457600080fd5b505afa1580156103b8573d6000803e3d6000fd5b505050506040513d601f19601f820116820180604052508101906103dc91906112b6565b73ffffffffffffffffffffffffffffffffffffffff1614610432576040517f08c379a000000000000000000000000000000000000000000000000000000000815260040161042990611355565b60405180910390fd5b600115156003600084815260200190815260200160002060050160149054906101000a900460ff1615151461049c576040517f08c379a0000000000000000000000000000000000000000000000000000000008152600401610493906113c1565b60405180910390fd5b600081116104df576040517f08c379a00000000000000000000000000000000000000000000000000000000081526004016104d69061142d565b60405180910390fd5b60006003600084815260200190815260200160002090508181600401819055508060010160009054906101000a900473ffffffffffffffffffffffffffffffffffffffff1673ffffffffffffffffffffffffffffffffffffffff166323b872dd333084600201546040518463ffffffff1660e01b81526004016105649392919061145c565b600060405180830381600087803b15801561057e57600080fd5b505af1158015610592573d6000803e3d6000fd5b50505050338160050160006101000a81548173ffffffffffffffffffffffffffffffffffffffff021916908373ffffffffffffffffffffffffffffffffffffffff16021790555060008160050160146101000a81548160ff0219169083151502179055505060016000819055505050565b60036020528060005260406000206000915090508060000154908060010160009054906101000a900473ffffffffffffffffffffffffffffffffffffffff16908060020154908060030154908060040154908060050160009054906101000a900473ffffffffffffffffffffffffffffffffffffffff16908060050160149054906101000a900460ff16905087565b600260005414156106d8576040517f08c379a00000000000000000000000000000000000000000000000000000000081526004016106cf9061126a565b60405180910390fd5b6002600081905550600015156003600083815260200190815260200160002060050160149054906101000a900460ff1615151461074a576040517f08c379a0000000000000000000000000000000000000000000000000000000008152600401610741906113c1565b60405180910390fd5b60008111801561075c57506002548111155b61079b576040517f08c379a0000000000000000000000000000000000000000000000000000000008152600401610792906114df565b60405180910390fd5b3373ffffffffffffffffffffffffffffffffffffffff166003600083815260200190815260200160002060050160009054906101000a900473ffffffffffffffffffffffffffffffffffffffff1673ffffffffffffffffffffffffffffffffffffffff161415610840576040517f08c379a00000000000000000000000000000000000000000000000000000000081526004016108379061154b565b60405180910390fd5b600061084b826101ef565b90506000600360008481526020019081526020016000209050348211156108a7576040517f08c379a000000000000000000000000000000000000000000000000000000000815260040161089e906115b7565b60405180910390fd5b8060050160009054906101000a900473ffffffffffffffffffffffffffffffffffffffff1673ffffffffffffffffffffffffffffffffffffffff166108fc82600301549081150290604051600060405180830381858888f19350505050158015610915573d6000803e3d6000fd5b50600160009054906101000a900473ffffffffffffffffffffffffffffffffffffffff1673ffffffffffffffffffffffffffffffffffffffff166108fc82600301548461096291906115d7565b9081150290604051600060405180830381858888f1935050505015801561098d573d6000803e3d6000fd5b508060010160009054906101000a900473ffffffffffffffffffffffffffffffffffffffff1673ffffffffffffffffffffffffffffffffffffffff166323b872dd303384600201546040518463ffffffff1660e01b81526004016109f39392919061145c565b600060405180830381600087803b158015610a0d57600080fd5b505af1158015610a21573d6000803e3d6000fd5b5050505060018160050160146101000a81548160ff021916908315150217905550806004015481600301819055503373ffffffffffffffffffffffffffffffffffffffff168160050160009054906101000a900473ffffffffffffffffffffffffffffffffffffffff1673ffffffffffffffffffffffffffffffffffffffff168260010160009054906101000a900473ffffffffffffffffffffffffffffffffffffffff1673ffffffffffffffffffffffffffffffffffffffff167f8b4c9c8a607d67b321582dd8461041b1dc2ceeca70c8b7f37f8e02095cf2e76d8685600201548660030154604051610b179392919061160b565b60405180910390a45050600160008190555050565b60026000541415610b72576040517f08c379a0000000000000000000000000000000000000000000000000000000008152600401610b699061126a565b60405180910390fd5b600260008190555060008111610bbd576040517f08c379a0000000000000000000000000000000000000000000000000000000008152600401610bb49061142d565b60405180910390fd5b60026000815480929190610bd090611642565b91905055508273ffffffffffffffffffffffffffffffffffffffff166323b872dd3330856040518463ffffffff1660e01b8152600401610c129392919061145c565b600060405180830381600087803b158015610c2c57600080fd5b505af1158015610c40573d6000803e3d6000fd5b5050505060008190506040518060e0016040528060025481526020018573ffffffffffffffffffffffffffffffffffffffff1681526020018481526020018381526020018281526020013373ffffffffffffffffffffffffffffffffffffffff168152602001600015158152506003600060025481526020019081526020016000206000820151816000015560208201518160010160006101000a81548173ffffffffffffffffffffffffffffffffffffffff021916908373ffffffffffffffffffffffffffffffffffffffff16021790555060408201518160020155606082015181600301556080820151816004015560a08201518160050160006101000a81548173ffffffffffffffffffffffffffffffffffffffff021916908373ffffffffffffffffffffffffffffffffffffffff16021790555060c08201518160050160146101000a81548160ff0219169083151502179055509050503373ffffffffffffffffffffffffffffffffffffffff168473ffffffffffffffffffffffffffffffffffffffff167f655a0cf9c8db81512be9a76dc1c5ae5380b8816ce6ad659cd61b715e2999d59a6002548686604051610dfe9392919061160b565b60405180910390a3506001600081905550505050565b600080fd5b6000819050919050565b610e2c81610e19565b8114610e3757600080fd5b50565b600081359050610e4981610e23565b92915050565b600060208284031215610e6557610e64610e14565b5b6000610e7384828501610e3a565b91505092915050565b610e8581610e19565b82525050565b6000602082019050610ea06000830184610e7c565b92915050565b600073ffffffffffffffffffffffffffffffffffffffff82169050919050565b6000610ed182610ea6565b9050919050565b610ee181610ec6565b82525050565b6000602082019050610efc6000830184610ed8565b92915050565b60008060408385031215610f1957610f18610e14565b5b6000610f2785828601610e3a565b9250506020610f3885828601610e3a565b9150509250929050565b6000819050919050565b6000610f67610f62610f5d84610ea6565b610f42565b610ea6565b9050919050565b6000610f7982610f4c565b9050919050565b6000610f8b82610f6e565b9050919050565b610f9b81610f80565b82525050565b60008115159050919050565b610fb681610fa1565b82525050565b600060e082019050610fd1600083018a610e7c565b610fde6020830189610f92565b610feb6040830188610e7c565b610ff86060830187610e7c565b6110056080830186610e7c565b61101260a0830185610ed8565b61101f60c0830184610fad565b98975050505050505050565b600061103682610ea6565b9050919050565b60006110488261102b565b9050919050565b6110588161103d565b811461106357600080fd5b50565b6000813590506110758161104f565b92915050565b60008060006060848603121561109457611093610e14565b5b60006110a286828701611066565b93505060206110b386828701610e3a565b92505060406110c486828701610e3a565b9150509250925092565b7f4e487b7100000000000000000000000000000000000000000000000000000000600052601160045260246000fd5b600061110882610e19565b915061111383610e19565b9250827fffffffffffffffffffffffffffffffffffffffffffffffffffffffffffffffff03821115611148576111476110ce565b5b828201905092915050565b600061115e82610e19565b915061116983610e19565b9250817fffffffffffffffffffffffffffffffffffffffffffffffffffffffffffffffff04831182151516156111a2576111a16110ce565b5b828202905092915050565b7f4e487b7100000000000000000000000000000000000000000000000000000000600052601260045260246000fd5b60006111e782610e19565b91506111f283610e19565b925082611202576112016111ad565b5b828204905092915050565b600082825260208201905092915050565b7f5265656e7472616e637947756172643a207265656e7472616e742063616c6c00600082015250565b6000611254601f8361120d565b915061125f8261121e565b602082019050919050565b6000602082019050818103600083015261128381611247565b9050919050565b6112938161102b565b811461129e57600080fd5b50565b6000815190506112b08161128a565b92915050565b6000602082840312156112cc576112cb610e14565b5b60006112da848285016112a1565b91505092915050565b7f596f75206d757374206f776e2074686520746f6b656e20746f206c697374206960008201527f7400000000000000000000000000000000000000000000000000000000000000602082015250565b600061133f60218361120d565b915061134a826112e3565b604082019050919050565b6000602082019050818103600083015261136e81611332565b9050919050565b7f4974656d20697320616c726561647920736f6c64000000000000000000000000600082015250565b60006113ab60148361120d565b91506113b682611375565b602082019050919050565b600060208201905081810360008301526113da8161139e565b9050919050565b7f5072696365206d7573742062652067726561746572207468616e203000000000600082015250565b6000611417601c8361120d565b9150611422826113e1565b602082019050919050565b600060208201905081810360008301526114468161140a565b9050919050565b6114568161102b565b82525050565b6000606082019050611471600083018661144d565b61147e602083018561144d565b61148b6040830184610e7c565b949350505050565b7f4974656d20646f6573206e6f7420657869737400000000000000000000000000600082015250565b60006114c960138361120d565b91506114d482611493565b602082019050919050565b600060208201905081810360008301526114f8816114bc565b9050919050565b7f596f752063616e6e6f742062757920796f7572206f776e206974656d00000000600082015250565b6000611535601c8361120d565b9150611540826114ff565b602082019050919050565b6000602082019050818103600083015261156481611528565b9050919050565b7f4e6f7420656e6f756768206d6f6e657920746f20627579206974656d00000000600082015250565b60006115a1601c8361120d565b91506115ac8261156b565b602082019050919050565b600060208201905081810360008301526115d081611594565b9050919050565b60006115e282610e19565b91506115ed83610e19565b925082821015611600576115ff6110ce565b5b828203905092915050565b60006060820190506116206000830186610e7c565b61162d6020830185610e7c565b61163a6040830184610e7c565b949350505050565b600061164d82610e19565b91507fffffffffffffffffffffffffffffffffffffffffffffffffffffffffffffffff8214156116805761167f6110ce565b5b60018201905091905056fea2646970667358221220e521b652dc6dae6a9289c5c82f66e725e5f94a3c9a59505113eefd18a09c0f9264736f6c63430008090033",
  "linkReferences": {},
  "deployedLinkReferences": {}
}