{
  "_format": "hh-sol-artifact-1",
  "contractName": "NFT",
  "sourceName": "contracts/NFT.sol",
  "abi": [
    {
      "inputs": [],
      "stateMutability": "nonpayable",
      "type": "constructor"
    },
    {
      "anonymous": false,
      "inputs": [
        {
          "indexed": true,
          "internalType": "address",
          "name": "owner",
          "type": "address"
        },
        {
          "indexed": true,
          "internalType": "address",
          "name": "approved",
          "type": "address"
        },
        {
          "indexed": true,
          "internalType": "uint256",
          "name": "tokenId",
          "type": "uint256"
        }
      ],
      "name": "Approval",
      "type": "event"
    },
    {
      "anonymous": false,
      "inputs": [
        {
          "indexed": true,
          "internalType": "address",
          "name": "owner",
          "type": "address"
        },
        {
          "indexed": true,
          "internalType": "address",
          "name": "operator",
          "type": "address"
        },
        {
          "indexed": false,
          "internalType": "bool",
          "name": "approved",
          "type": "bool"
        }
      ],
      "name": "ApprovalForAll",
      "type": "event"
    },
    {
      "anonymous": false,
      "inputs": [
        {
          "indexed": true,
          "internalType": "address",
          "name": "from",
          "type": "address"
        },
        {
          "indexed": true,
          "internalType": "address",
          "name": "to",
          "type": "address"
        },
        {
          "indexed": true,
          "internalType": "uint256",
          "name": "tokenId",
          "type": "uint256"
        }
      ],
      "name": "Transfer",
      "type": "event"
    },
    {
      "inputs": [
        {
          "internalType": "address",
          "name": "to",
          "type": "address"
        },
        {
          "internalType": "uint256",
          "name": "tokenId",
          "type": "uint256"
        }
      ],
      "name": "approve",
      "outputs": [],
      "stateMutability": "nonpayable",
      "type": "function"
    },
    {
      "inputs": [
        {
          "internalType": "address",
          "name": "owner",
          "type": "address"
        }
      ],
      "name": "balanceOf",
      "outputs": [
        {
          "internalType": "uint256",
          "name": "",
          "type": "uint256"
        }
      ],
      "stateMutability": "view",
      "type": "function"
    },
    {
      "inputs": [
        {
          "internalType": "uint256",
          "name": "tokenId",
          "type": "uint256"
        }
      ],
      "name": "getApproved",
      "outputs": [
        {
          "internalType": "address",
          "name": "",
          "type": "address"
        }
      ],
      "stateMutability": "view",
      "type": "function"
    },
    {
      "inputs": [
        {
          "internalType": "uint256",
          "name": "_tokenId",
          "type": "uint256"
        }
      ],
      "name": "getOwner",
      "outputs": [
        {
          "internalType": "address",
          "name": "",
          "type": "address"
        }
      ],
      "stateMutability": "view",
      "type": "function"
    },
    {
      "inputs": [
        {
          "internalType": "address",
          "name": "owner",
          "type": "address"
        },
        {
          "internalType": "address",
          "name": "operator",
          "type": "address"
        }
      ],
      "name": "isApprovedForAll",
      "outputs": [
        {
          "internalType": "bool",
          "name": "",
          "type": "bool"
        }
      ],
      "stateMutability": "view",
      "type": "function"
    },
    {
      "inputs": [
        {
          "internalType": "string",
          "name": "_tokenURI",
          "type": "string"
        }
      ],
      "name": "mint",
      "outputs": [
        {
          "internalType": "uint256",
          "name": "",
          "type": "uint256"
        }
      ],
      "stateMutability": "nonpayable",
      "type": "function"
    },
    {
      "inputs": [],
      "name": "name",
      "outputs": [
        {
          "internalType": "string",
          "name": "",
          "type": "string"
        }
      ],
      "stateMutability": "view",
      "type": "function"
    },
    {
      "inputs": [
        {
          "internalType": "uint256",
          "name": "tokenId",
          "type": "uint256"
        }
      ],
      "name": "ownerOf",
      "outputs": [
        {
          "internalType": "address",
          "name": "",
          "type": "address"
        }
      ],
      "stateMutability": "view",
      "type": "function"
    },
    {
      "inputs": [
        {
          "internalType": "address",
          "name": "from",
          "type": "address"
        },
        {
          "internalType": "address",
          "name": "to",
          "type": "address"
        },
        {
          "internalType": "uint256",
          "name": "tokenId",
          "type": "uint256"
        }
      ],
      "name": "safeTransferFrom",
      "outputs": [],
      "stateMutability": "nonpayable",
      "type": "function"
    },
    {
      "inputs": [
        {
          "internalType": "address",
          "name": "from",
          "type": "address"
        },
        {
          "internalType": "address",
          "name": "to",
          "type": "address"
        },
        {
          "internalType": "uint256",
          "name": "tokenId",
          "type": "uint256"
        },
        {
          "internalType": "bytes",
          "name": "data",
          "type": "bytes"
        }
      ],
      "name": "safeTransferFrom",
      "outputs": [],
      "stateMutability": "nonpayable",
      "type": "function"
    },
    {
      "inputs": [
        {
          "internalType": "address",
          "name": "operator",
          "type": "address"
        },
        {
          "internalType": "bool",
          "name": "approved",
          "type": "bool"
        }
      ],
      "name": "setApprovalForAll",
      "outputs": [],
      "stateMutability": "nonpayable",
      "type": "function"
    },
    {
      "inputs": [
        {
          "internalType": "bytes4",
          "name": "interfaceId",
          "type": "bytes4"
        }
      ],
      "name": "supportsInterface",
      "outputs": [
        {
          "internalType": "bool",
          "name": "",
          "type": "bool"
        }
      ],
      "stateMutability": "view",
      "type": "function"
    },
    {
      "inputs": [],
      "name": "symbol",
      "outputs": [
        {
          "internalType": "string",
          "name": "",
          "type": "string"
        }
      ],
      "stateMutability": "view",
      "type": "function"
    },
    {
      "inputs": [],
      "name": "tokenCount",
      "outputs": [
        {
          "internalType": "uint256",
          "name": "",
          "type": "uint256"
        }
      ],
      "stateMutability": "view",
      "type": "function"
    },
    {
      "inputs": [
        {
          "internalType": "uint256",
          "name": "tokenId",
          "type": "uint256"
        }
      ],
      "name": "tokenURI",
      "outputs": [
        {
          "internalType": "string",
          "name": "",
          "type": "string"
        }
      ],
      "stateMutability": "view",
      "type": "function"
    },
    {
      "inputs": [
        {
          "internalType": "address",
          "name": "from",
          "type": "address"
        },
        {
          "internalType": "address",
          "name": "to",
          "type": "address"
        },
        {
          "internalType": "uint256",
          "name": "tokenId",
          "type": "uint256"
        }
      ],
      "name": "transferFrom",
      "outputs": [],
      "stateMutability": "nonpayable",
      "type": "function"
    }
  ],
  "bytecode": "0x60806040523480156200001157600080fd5b506040518060400160405280600881526020017f44417070204e46540000000000000000000000000000000000000000000000008152506040518060400160405280600481526020017f4441505000000000000000000000000000000000000000000000000000000000815250816000908051906020019062000096929190620000b8565b508060019080519060200190620000af929190620000b8565b505050620001cd565b828054620000c69062000197565b90600052602060002090601f016020900481019282620000ea576000855562000136565b82601f106200010557805160ff191683800117855562000136565b8280016001018555821562000136579182015b828111156200013557825182559160200191906001019062000118565b5b50905062000145919062000149565b5090565b5b80821115620001645760008160009055506001016200014a565b5090565b7f4e487b7100000000000000000000000000000000000000000000000000000000600052602260045260246000fd5b60006002820490506001821680620001b057607f821691505b60208210811415620001c757620001c662000168565b5b50919050565b61296a80620001dd6000396000f3fe608060405234801561001057600080fd5b50600436106101005760003560e01c806395d89b4111610097578063c41a360a11610066578063c41a360a146102ab578063c87b56dd146102db578063d85d3d271461030b578063e985e9c51461033b57610100565b806395d89b41146102375780639f181b5e14610255578063a22cb46514610273578063b88d4fde1461028f57610100565b806323b872dd116100d357806323b872dd1461019f57806342842e0e146101bb5780636352211e146101d757806370a082311461020757610100565b806301ffc9a71461010557806306fdde0314610135578063081812fc14610153578063095ea7b314610183575b600080fd5b61011f600480360381019061011a919061194d565b61036b565b60405161012c9190611995565b60405180910390f35b61013d61044d565b60405161014a9190611a49565b60405180910390f35b61016d60048036038101906101689190611aa1565b6104df565b60405161017a9190611b0f565b60405180910390f35b61019d60048036038101906101989190611b56565b610525565b005b6101b960048036038101906101b49190611b96565b61063d565b005b6101d560048036038101906101d09190611b96565b61069d565b005b6101f160048036038101906101ec9190611aa1565b6106bd565b6040516101fe9190611b0f565b60405180910390f35b610221600480360381019061021c9190611be9565b61076f565b60405161022e9190611c25565b60405180910390f35b61023f610827565b60405161024c9190611a49565b60405180910390f35b61025d6108b9565b60405161026a9190611c25565b60405180910390f35b61028d60048036038101906102889190611c6c565b6108bf565b005b6102a960048036038101906102a49190611de1565b6108d5565b005b6102c560048036038101906102c09190611aa1565b610937565b6040516102d29190611b0f565b60405180910390f35b6102f560048036038101906102f09190611aa1565b610949565b6040516103029190611a49565b60405180910390f35b61032560048036038101906103209190611f05565b610a5c565b6040516103329190611c25565b60405180910390f35b61035560048036038101906103509190611f4e565b610a98565b6040516103629190611995565b60405180910390f35b60007f80ac58cd000000000000000000000000000000000000000000000000000000007bffffffffffffffffffffffffffffffffffffffffffffffffffffffff1916827bffffffffffffffffffffffffffffffffffffffffffffffffffffffff1916148061043657507f5b5e139f000000000000000000000000000000000000000000000000000000007bffffffffffffffffffffffffffffffffffffffffffffffffffffffff1916827bffffffffffffffffffffffffffffffffffffffffffffffffffffffff1916145b80610446575061044582610b2c565b5b9050919050565b60606000805461045c90611fbd565b80601f016020809104026020016040519081016040528092919081815260200182805461048890611fbd565b80156104d55780601f106104aa576101008083540402835291602001916104d5565b820191906000526020600020905b8154815290600101906020018083116104b857829003601f168201915b5050505050905090565b60006104ea82610b96565b6004600083815260200190815260200160002060009054906101000a900473ffffffffffffffffffffffffffffffffffffffff169050919050565b6000610530826106bd565b90508073ffffffffffffffffffffffffffffffffffffffff168373ffffffffffffffffffffffffffffffffffffffff1614156105a1576040517f08c379a000000000000000000000000000000000000000000000000000000000815260040161059890612061565b60405180910390fd5b8073ffffffffffffffffffffffffffffffffffffffff166105c0610be1565b73ffffffffffffffffffffffffffffffffffffffff1614806105ef57506105ee816105e9610be1565b610a98565b5b61062e576040517f08c379a0000000000000000000000000000000000000000000000000000000008152600401610625906120f3565b60405180910390fd5b6106388383610be9565b505050565b61064e610648610be1565b82610ca2565b61068d576040517f08c379a000000000000000000000000000000000000000000000000000000000815260040161068490612185565b60405180910390fd5b610698838383610d37565b505050565b6106b8838383604051806020016040528060008152506108d5565b505050565b6000806002600084815260200190815260200160002060009054906101000a900473ffffffffffffffffffffffffffffffffffffffff169050600073ffffffffffffffffffffffffffffffffffffffff168173ffffffffffffffffffffffffffffffffffffffff161415610766576040517f08c379a000000000000000000000000000000000000000000000000000000000815260040161075d906121f1565b60405180910390fd5b80915050919050565b60008073ffffffffffffffffffffffffffffffffffffffff168273ffffffffffffffffffffffffffffffffffffffff1614156107e0576040517f08c379a00000000000000000000000000000000000000000000000000000000081526004016107d790612283565b60405180910390fd5b600360008373ffffffffffffffffffffffffffffffffffffffff1673ffffffffffffffffffffffffffffffffffffffff168152602001908152602001600020549050919050565b60606001805461083690611fbd565b80601f016020809104026020016040519081016040528092919081815260200182805461086290611fbd565b80156108af5780601f10610884576101008083540402835291602001916108af565b820191906000526020600020905b81548152906001019060200180831161089257829003601f168201915b5050505050905090565b60075481565b6108d16108ca610be1565b8383610f9e565b5050565b6108e66108e0610be1565b83610ca2565b610925576040517f08c379a000000000000000000000000000000000000000000000000000000000815260040161091c90612185565b60405180910390fd5b6109318484848461110b565b50505050565b6000610942826106bd565b9050919050565b606061095482610b96565b600060066000848152602001908152602001600020805461097490611fbd565b80601f01602080910402602001604051908101604052809291908181526020018280546109a090611fbd565b80156109ed5780601f106109c2576101008083540402835291602001916109ed565b820191906000526020600020905b8154815290600101906020018083116109d057829003601f168201915b5050505050905060006109fe611167565b9050600081511415610a14578192505050610a57565b600082511115610a49578082604051602001610a319291906122df565b60405160208183030381529060405292505050610a57565b610a528461117e565b925050505b919050565b600060076000815480929190610a7190612332565b9190505550610a82336007546111e6565b610a8e60075483611204565b6007549050919050565b6000600560008473ffffffffffffffffffffffffffffffffffffffff1673ffffffffffffffffffffffffffffffffffffffff16815260200190815260200160002060008373ffffffffffffffffffffffffffffffffffffffff1673ffffffffffffffffffffffffffffffffffffffff16815260200190815260200160002060009054906101000a900460ff16905092915050565b60007f01ffc9a7000000000000000000000000000000000000000000000000000000007bffffffffffffffffffffffffffffffffffffffffffffffffffffffff1916827bffffffffffffffffffffffffffffffffffffffffffffffffffffffff1916149050919050565b610b9f81611278565b610bde576040517f08c379a0000000000000000000000000000000000000000000000000000000008152600401610bd5906121f1565b60405180910390fd5b50565b600033905090565b816004600083815260200190815260200160002060006101000a81548173ffffffffffffffffffffffffffffffffffffffff021916908373ffffffffffffffffffffffffffffffffffffffff160217905550808273ffffffffffffffffffffffffffffffffffffffff16610c5c836106bd565b73ffffffffffffffffffffffffffffffffffffffff167f8c5be1e5ebec7d5bd14f71427d1e84f3dd0314c0f7b2291e5b200ac8c7c3b92560405160405180910390a45050565b600080610cae836106bd565b90508073ffffffffffffffffffffffffffffffffffffffff168473ffffffffffffffffffffffffffffffffffffffff161480610cf05750610cef8185610a98565b5b80610d2e57508373ffffffffffffffffffffffffffffffffffffffff16610d16846104df565b73ffffffffffffffffffffffffffffffffffffffff16145b91505092915050565b8273ffffffffffffffffffffffffffffffffffffffff16610d57826106bd565b73ffffffffffffffffffffffffffffffffffffffff1614610dad576040517f08c379a0000000000000000000000000000000000000000000000000000000008152600401610da4906123ed565b60405180910390fd5b600073ffffffffffffffffffffffffffffffffffffffff168273ffffffffffffffffffffffffffffffffffffffff161415610e1d576040517f08c379a0000000000000000000000000000000000000000000000000000000008152600401610e149061247f565b60405180910390fd5b610e288383836112e4565b610e33600082610be9565b6001600360008573ffffffffffffffffffffffffffffffffffffffff1673ffffffffffffffffffffffffffffffffffffffff1681526020019081526020016000206000828254610e83919061249f565b925050819055506001600360008473ffffffffffffffffffffffffffffffffffffffff1673ffffffffffffffffffffffffffffffffffffffff1681526020019081526020016000206000828254610eda91906124d3565b92505081905550816002600083815260200190815260200160002060006101000a81548173ffffffffffffffffffffffffffffffffffffffff021916908373ffffffffffffffffffffffffffffffffffffffff160217905550808273ffffffffffffffffffffffffffffffffffffffff168473ffffffffffffffffffffffffffffffffffffffff167fddf252ad1be2c89b69c2b068fc378daa952ba7f163c4a11628f55a4df523b3ef60405160405180910390a4610f998383836112e9565b505050565b8173ffffffffffffffffffffffffffffffffffffffff168373ffffffffffffffffffffffffffffffffffffffff16141561100d576040517f08c379a000000000000000000000000000000000000000000000000000000000815260040161100490612575565b60405180910390fd5b80600560008573ffffffffffffffffffffffffffffffffffffffff1673ffffffffffffffffffffffffffffffffffffffff16815260200190815260200160002060008473ffffffffffffffffffffffffffffffffffffffff1673ffffffffffffffffffffffffffffffffffffffff16815260200190815260200160002060006101000a81548160ff0219169083151502179055508173ffffffffffffffffffffffffffffffffffffffff168373ffffffffffffffffffffffffffffffffffffffff167f17307eab39ab6107e8899845ad3d59bd9653f200f220920489ca2b5937696c31836040516110fe9190611995565b60405180910390a3505050565b611116848484610d37565b611122848484846112ee565b611161576040517f08c379a000000000000000000000000000000000000000000000000000000000815260040161115890612607565b60405180910390fd5b50505050565b606060405180602001604052806000815250905090565b606061118982610b96565b6000611193611167565b905060008151116111b357604051806020016040528060008152506111de565b806111bd84611485565b6040516020016111ce9291906122df565b6040516020818303038152906040525b915050919050565b6112008282604051806020016040528060008152506115e6565b5050565b61120d82611278565b61124c576040517f08c379a000000000000000000000000000000000000000000000000000000000815260040161124390612699565b60405180910390fd5b8060066000848152602001908152602001600020908051906020019061127392919061183e565b505050565b60008073ffffffffffffffffffffffffffffffffffffffff166002600084815260200190815260200160002060009054906101000a900473ffffffffffffffffffffffffffffffffffffffff1673ffffffffffffffffffffffffffffffffffffffff1614159050919050565b505050565b505050565b600061130f8473ffffffffffffffffffffffffffffffffffffffff16611641565b15611478578373ffffffffffffffffffffffffffffffffffffffff1663150b7a02611338610be1565b8786866040518563ffffffff1660e01b815260040161135a949392919061270e565b602060405180830381600087803b15801561137457600080fd5b505af19250505080156113a557506040513d601f19601f820116820180604052508101906113a2919061276f565b60015b611428573d80600081146113d5576040519150601f19603f3d011682016040523d82523d6000602084013e6113da565b606091505b50600081511415611420576040517f08c379a000000000000000000000000000000000000000000000000000000000815260040161141790612607565b60405180910390fd5b805181602001fd5b63150b7a0260e01b7bffffffffffffffffffffffffffffffffffffffffffffffffffffffff1916817bffffffffffffffffffffffffffffffffffffffffffffffffffffffff19161491505061147d565b600190505b949350505050565b606060008214156114cd576040518060400160405280600181526020017f300000000000000000000000000000000000000000000000000000000000000081525090506115e1565b600082905060005b600082146114ff5780806114e890612332565b915050600a826114f891906127cb565b91506114d5565b60008167ffffffffffffffff81111561151b5761151a611cb6565b5b6040519080825280601f01601f19166020018201604052801561154d5781602001600182028036833780820191505090505b5090505b600085146115da57600182611566919061249f565b9150600a8561157591906127fc565b603061158191906124d3565b60f81b8183815181106115975761159661282d565b5b60200101907effffffffffffffffffffffffffffffffffffffffffffffffffffffffffffff1916908160001a905350600a856115d391906127cb565b9450611551565b8093505050505b919050565b6115f08383611664565b6115fd60008484846112ee565b61163c576040517f08c379a000000000000000000000000000000000000000000000000000000000815260040161163390612607565b60405180910390fd5b505050565b6000808273ffffffffffffffffffffffffffffffffffffffff163b119050919050565b600073ffffffffffffffffffffffffffffffffffffffff168273ffffffffffffffffffffffffffffffffffffffff1614156116d4576040517f08c379a00000000000000000000000000000000000000000000000000000000081526004016116cb906128a8565b60405180910390fd5b6116dd81611278565b1561171d576040517f08c379a000000000000000000000000000000000000000000000000000000000815260040161171490612914565b60405180910390fd5b611729600083836112e4565b6001600360008473ffffffffffffffffffffffffffffffffffffffff1673ffffffffffffffffffffffffffffffffffffffff168152602001908152602001600020600082825461177991906124d3565b92505081905550816002600083815260200190815260200160002060006101000a81548173ffffffffffffffffffffffffffffffffffffffff021916908373ffffffffffffffffffffffffffffffffffffffff160217905550808273ffffffffffffffffffffffffffffffffffffffff16600073ffffffffffffffffffffffffffffffffffffffff167fddf252ad1be2c89b69c2b068fc378daa952ba7f163c4a11628f55a4df523b3ef60405160405180910390a461183a600083836112e9565b5050565b82805461184a90611fbd565b90600052602060002090601f01602090048101928261186c57600085556118b3565b82601f1061188557805160ff19168380011785556118b3565b828001600101855582156118b3579182015b828111156118b2578251825591602001919060010190611897565b5b5090506118c091906118c4565b5090565b5b808211156118dd5760008160009055506001016118c5565b5090565b6000604051905090565b600080fd5b600080fd5b60007fffffffff0000000000000000000000000000000000000000000000000000000082169050919050565b61192a816118f5565b811461193557600080fd5b50565b60008135905061194781611921565b92915050565b600060208284031215611963576119626118eb565b5b600061197184828501611938565b91505092915050565b60008115159050919050565b61198f8161197a565b82525050565b60006020820190506119aa6000830184611986565b92915050565b600081519050919050565b600082825260208201905092915050565b60005b838110156119ea5780820151818401526020810190506119cf565b838111156119f9576000848401525b50505050565b6000601f19601f8301169050919050565b6000611a1b826119b0565b611a2581856119bb565b9350611a358185602086016119cc565b611a3e816119ff565b840191505092915050565b60006020820190508181036000830152611a638184611a10565b905092915050565b6000819050919050565b611a7e81611a6b565b8114611a8957600080fd5b50565b600081359050611a9b81611a75565b92915050565b600060208284031215611ab757611ab66118eb565b5b6000611ac584828501611a8c565b91505092915050565b600073ffffffffffffffffffffffffffffffffffffffff82169050919050565b6000611af982611ace565b9050919050565b611b0981611aee565b82525050565b6000602082019050611b246000830184611b00565b92915050565b611b3381611aee565b8114611b3e57600080fd5b50565b600081359050611b5081611b2a565b92915050565b60008060408385031215611b6d57611b6c6118eb565b5b6000611b7b85828601611b41565b9250506020611b8c85828601611a8c565b9150509250929050565b600080600060608486031215611baf57611bae6118eb565b5b6000611bbd86828701611b41565b9350506020611bce86828701611b41565b9250506040611bdf86828701611a8c565b9150509250925092565b600060208284031215611bff57611bfe6118eb565b5b6000611c0d84828501611b41565b91505092915050565b611c1f81611a6b565b82525050565b6000602082019050611c3a6000830184611c16565b92915050565b611c498161197a565b8114611c5457600080fd5b50565b600081359050611c6681611c40565b92915050565b60008060408385031215611c8357611c826118eb565b5b6000611c9185828601611b41565b9250506020611ca285828601611c57565b9150509250929050565b600080fd5b600080fd5b7f4e487b7100000000000000000000000000000000000000000000000000000000600052604160045260246000fd5b611cee826119ff565b810181811067ffffffffffffffff82111715611d0d57611d0c611cb6565b5b80604052505050565b6000611d206118e1565b9050611d2c8282611ce5565b919050565b600067ffffffffffffffff821115611d4c57611d4b611cb6565b5b611d55826119ff565b9050602081019050919050565b82818337600083830152505050565b6000611d84611d7f84611d31565b611d16565b905082815260208101848484011115611da057611d9f611cb1565b5b611dab848285611d62565b509392505050565b600082601f830112611dc857611dc7611cac565b5b8135611dd8848260208601611d71565b91505092915050565b60008060008060808587031215611dfb57611dfa6118eb565b5b6000611e0987828801611b41565b9450506020611e1a87828801611b41565b9350506040611e2b87828801611a8c565b925050606085013567ffffffffffffffff811115611e4c57611e4b6118f0565b5b611e5887828801611db3565b91505092959194509250565b600067ffffffffffffffff821115611e7f57611e7e611cb6565b5b611e88826119ff565b9050602081019050919050565b6000611ea8611ea384611e64565b611d16565b905082815260208101848484011115611ec457611ec3611cb1565b5b611ecf848285611d62565b509392505050565b600082601f830112611eec57611eeb611cac565b5b8135611efc848260208601611e95565b91505092915050565b600060208284031215611f1b57611f1a6118eb565b5b600082013567ffffffffffffffff811115611f3957611f386118f0565b5b611f4584828501611ed7565b91505092915050565b60008060408385031215611f6557611f646118eb565b5b6000611f7385828601611b41565b9250506020611f8485828601611b41565b9150509250929050565b7f4e487b7100000000000000000000000000000000000000000000000000000000600052602260045260246000fd5b60006002820490506001821680611fd557607f821691505b60208210811415611fe957611fe8611f8e565b5b50919050565b7f4552433732313a20617070726f76616c20746f2063757272656e74206f776e6560008201527f7200000000000000000000000000000000000000000000000000000000000000602082015250565b600061204b6021836119bb565b915061205682611fef565b604082019050919050565b6000602082019050818103600083015261207a8161203e565b9050919050565b7f4552433732313a20617070726f76652063616c6c6572206973206e6f7420746f60008201527f6b656e206f776e6572206e6f7220617070726f76656420666f7220616c6c0000602082015250565b60006120dd603e836119bb565b91506120e882612081565b604082019050919050565b6000602082019050818103600083015261210c816120d0565b9050919050565b7f4552433732313a2063616c6c6572206973206e6f7420746f6b656e206f776e6560008201527f72206e6f7220617070726f766564000000000000000000000000000000000000602082015250565b600061216f602e836119bb565b915061217a82612113565b604082019050919050565b6000602082019050818103600083015261219e81612162565b9050919050565b7f4552433732313a20696e76616c696420746f6b656e2049440000000000000000600082015250565b60006121db6018836119bb565b91506121e6826121a5565b602082019050919050565b6000602082019050818103600083015261220a816121ce565b9050919050565b7f4552433732313a2061646472657373207a65726f206973206e6f74206120766160008201527f6c6964206f776e65720000000000000000000000000000000000000000000000602082015250565b600061226d6029836119bb565b915061227882612211565b604082019050919050565b6000602082019050818103600083015261229c81612260565b9050919050565b600081905092915050565b60006122b9826119b0565b6122c381856122a3565b93506122d38185602086016119cc565b80840191505092915050565b60006122eb82856122ae565b91506122f782846122ae565b91508190509392505050565b7f4e487b7100000000000000000000000000000000000000000000000000000000600052601160045260246000fd5b600061233d82611a6b565b91507fffffffffffffffffffffffffffffffffffffffffffffffffffffffffffffffff8214156123705761236f612303565b5b600182019050919050565b7f4552433732313a207472616e736665722066726f6d20696e636f72726563742060008201527f6f776e6572000000000000000000000000000000000000000000000000000000602082015250565b60006123d76025836119bb565b91506123e28261237b565b604082019050919050565b60006020820190508181036000830152612406816123ca565b9050919050565b7f4552433732313a207472616e7366657220746f20746865207a65726f2061646460008201527f7265737300000000000000000000000000000000000000000000000000000000602082015250565b60006124696024836119bb565b91506124748261240d565b604082019050919050565b600060208201905081810360008301526124988161245c565b9050919050565b60006124aa82611a6b565b91506124b583611a6b565b9250828210156124c8576124c7612303565b5b828203905092915050565b60006124de82611a6b565b91506124e983611a6b565b9250827fffffffffffffffffffffffffffffffffffffffffffffffffffffffffffffffff0382111561251e5761251d612303565b5b828201905092915050565b7f4552433732313a20617070726f766520746f2063616c6c657200000000000000600082015250565b600061255f6019836119bb565b915061256a82612529565b602082019050919050565b6000602082019050818103600083015261258e81612552565b9050919050565b7f4552433732313a207472616e7366657220746f206e6f6e20455243373231526560008201527f63656976657220696d706c656d656e7465720000000000000000000000000000602082015250565b60006125f16032836119bb565b91506125fc82612595565b604082019050919050565b60006020820190508181036000830152612620816125e4565b9050919050565b7f45524337323155524953746f726167653a2055524920736574206f66206e6f6e60008201527f6578697374656e7420746f6b656e000000000000000000000000000000000000602082015250565b6000612683602e836119bb565b915061268e82612627565b604082019050919050565b600060208201905081810360008301526126b281612676565b9050919050565b600081519050919050565b600082825260208201905092915050565b60006126e0826126b9565b6126ea81856126c4565b93506126fa8185602086016119cc565b612703816119ff565b840191505092915050565b60006080820190506127236000830187611b00565b6127306020830186611b00565b61273d6040830185611c16565b818103606083015261274f81846126d5565b905095945050505050565b60008151905061276981611921565b92915050565b600060208284031215612785576127846118eb565b5b60006127938482850161275a565b91505092915050565b7f4e487b7100000000000000000000000000000000000000000000000000000000600052601260045260246000fd5b60006127d682611a6b565b91506127e183611a6b565b9250826127f1576127f061279c565b5b828204905092915050565b600061280782611a6b565b915061281283611a6b565b9250826128225761282161279c565b5b828206905092915050565b7f4e487b7100000000000000000000000000000000000000000000000000000000600052603260045260246000fd5b7f4552433732313a206d696e7420746f20746865207a65726f2061646472657373600082015250565b60006128926020836119bb565b915061289d8261285c565b602082019050919050565b600060208201905081810360008301526128c181612885565b9050919050565b7f4552433732313a20746f6b656e20616c7265616479206d696e74656400000000600082015250565b60006128fe601c836119bb565b9150612909826128c8565b602082019050919050565b6000602082019050818103600083015261292d816128f1565b905091905056fea2646970667358221220c01d9ce9dd0f465577e243e0272042151c579158ad1c9b4c150db7b76d78970f64736f6c63430008090033",
  "linkReferences": {},
  "deployedLinkReferences": {}
}